{
  "_format": "hh-sol-artifact-1",
  "contractName": "VotingDao",
  "sourceName": "contracts/VotingDao.sol",
  "abi": [
    {
      "anonymous": false,
      "inputs": [
        {
          "indexed": true,
          "internalType": "uint256",
          "name": "proposalId",
          "type": "uint256"
        },
        {
          "indexed": true,
          "internalType": "address",
          "name": "creator",
          "type": "address"
        },
        {
          "indexed": false,
          "internalType": "string",
          "name": "description",
          "type": "string"
        },
        {
          "indexed": false,
          "internalType": "uint256",
          "name": "expirationTime",
          "type": "uint256"
        }
      ],
      "name": "ProposalCreated",
      "type": "event"
    },
    {
      "anonymous": false,
      "inputs": [
        {
          "indexed": true,
          "internalType": "address",
          "name": "voter",
          "type": "address"
        },
        {
          "indexed": true,
          "internalType": "uint256",
          "name": "proposalId",
          "type": "uint256"
        },
        {
          "indexed": false,
          "internalType": "bool",
          "name": "voteFor",
          "type": "bool"
        }
      ],
      "name": "VoteCast",
      "type": "event"
    },
    {
      "inputs": [
        {
          "internalType": "string",
          "name": "description",
          "type": "string"
        },
        {
          "internalType": "uint256",
          "name": "durationInSeconds",
          "type": "uint256"
        }
      ],
      "name": "createProposal",
      "outputs": [],
      "stateMutability": "nonpayable",
      "type": "function"
    },
    {
      "inputs": [],
      "name": "getAllProposalIds",
      "outputs": [
        {
          "internalType": "uint256[]",
          "name": "",
          "type": "uint256[]"
        }
      ],
      "stateMutability": "view",
      "type": "function"
    },
    {
      "inputs": [
        {
          "internalType": "uint256",
          "name": "proposalId",
          "type": "uint256"
        }
      ],
      "name": "getProposal",
      "outputs": [
        {
          "components": [
            {
              "internalType": "uint256",
              "name": "id",
              "type": "uint256"
            },
            {
              "internalType": "string",
              "name": "description",
              "type": "string"
            },
            {
              "internalType": "uint256",
              "name": "expirationTime",
              "type": "uint256"
            },
            {
              "internalType": "uint256",
              "name": "votesFor",
              "type": "uint256"
            },
            {
              "internalType": "uint256",
              "name": "votesAgainst",
              "type": "uint256"
            },
            {
              "internalType": "bool",
              "name": "active",
              "type": "bool"
            }
          ],
          "internalType": "struct VotingDao.Proposal",
          "name": "",
          "type": "tuple"
        }
      ],
      "stateMutability": "view",
      "type": "function"
    },
    {
      "inputs": [
        {
          "internalType": "uint256",
          "name": "proposalId",
          "type": "uint256"
        }
      ],
      "name": "getVoteCount",
      "outputs": [
        {
          "internalType": "uint256",
          "name": "votesFor",
          "type": "uint256"
        },
        {
          "internalType": "uint256",
          "name": "votesAgainst",
          "type": "uint256"
        }
      ],
      "stateMutability": "view",
      "type": "function"
    },
    {
      "inputs": [
        {
          "internalType": "uint256",
          "name": "proposalId",
          "type": "uint256"
        },
        {
          "internalType": "address",
          "name": "user",
          "type": "address"
        }
      ],
      "name": "hasUserVoted",
      "outputs": [
        {
          "internalType": "bool",
          "name": "",
          "type": "bool"
        }
      ],
      "stateMutability": "view",
      "type": "function"
    },
    {
      "inputs": [
        {
          "internalType": "uint256",
          "name": "proposalId",
          "type": "uint256"
        }
      ],
      "name": "isProposalActive",
      "outputs": [
        {
          "internalType": "bool",
          "name": "",
          "type": "bool"
        }
      ],
      "stateMutability": "view",
      "type": "function"
    },
    {
      "inputs": [
        {
          "internalType": "uint256",
          "name": "proposalId",
          "type": "uint256"
        },
        {
          "internalType": "bool",
          "name": "voteFor",
          "type": "bool"
        }
      ],
      "name": "vote",
      "outputs": [],
      "stateMutability": "nonpayable",
      "type": "function"
    }
  ],
  "bytecode": "0x608060405234801561001057600080fd5b506113fa806100206000396000f3fe608060405234801561001057600080fd5b506004361061007d5760003560e01c8063c7f758a81161005b578063c7f758a8146100ff578063c9d27afe1461012f578063dc296ae11461014b578063efa90d361461017b5761007d565b8063164b3d2f1461008257806335facf78146100b2578063b2c2f2e8146100ce575b600080fd5b61009c60048036038101906100979190610949565b610199565b6040516100a99190610991565b60405180910390f35b6100cc60048036038101906100c79190610a11565b6101db565b005b6100e860048036038101906100e39190610949565b6103b4565b6040516100f6929190610a80565b60405180910390f35b61011960048036038101906101149190610949565b6103e2565b6040516101269190610be0565b60405180910390f35b61014960048036038101906101449190610c2e565b6104e4565b005b61016560048036038101906101609190610ccc565b61072e565b6040516101729190610991565b60405180910390f35b610183610796565b6040516101909190610dbb565b60405180910390f35b6000806001600084815260200190815260200160002090508060050160009054906101000a900460ff1680156101d3575080600201544211155b915050919050565b6000811161021e576040517f08c379a000000000000000000000000000000000000000000000000000000000815260040161021590610e3a565b60405180910390fd5b60008081548092919061023090610e89565b91905055506000805490506040518060c0016040528082815260200185858080601f016020809104026020016040519081016040528093929190818152602001838380828437600081840152601f19601f82011690508083019250505050505050815260200183426102a29190610ed1565b8152602001600081526020016000815260200160011515815250600160008381526020019081526020016000206000820151816000015560208201518160010190816102ee9190611140565b5060408201518160020155606082015181600301556080820151816004015560a08201518160050160006101000a81548160ff0219169083151502179055509050506103448160036107a790919063ffffffff16565b503373ffffffffffffffffffffffffffffffffffffffff16817f98120a6aaa04295520ab4e01c6c1235dd316e822cc9ff31db7b3f197366d18bd868660016000878152602001908152602001600020600201546040516103a69392919061124e565b60405180910390a350505050565b6000806000600160008581526020019081526020016000209050806003015481600401549250925050915091565b6103ea6108d1565b600160008381526020019081526020016000206040518060c00160405290816000820154815260200160018201805461042290610f63565b80601f016020809104026020016040519081016040528092919081815260200182805461044e90610f63565b801561049b5780601f106104705761010080835404028352916020019161049b565b820191906000526020600020905b81548152906001019060200180831161047e57829003601f168201915b505050505081526020016002820154815260200160038201548152602001600482015481526020016005820160009054906101000a900460ff1615151515815250509050919050565b60006001600084815260200190815260200160002090508060050160009054906101000a900460ff1661054c576040517f08c379a0000000000000000000000000000000000000000000000000000000008152600401610543906112cc565b60405180910390fd5b8060020154421115610593576040517f08c379a000000000000000000000000000000000000000000000000000000000815260040161058a90611338565b60405180910390fd5b6002600084815260200190815260200160002060003373ffffffffffffffffffffffffffffffffffffffff1673ffffffffffffffffffffffffffffffffffffffff16815260200190815260200160002060009054906101000a900460ff1615610631576040517f08c379a0000000000000000000000000000000000000000000000000000000008152600401610628906113a4565b60405180910390fd5b60016002600085815260200190815260200160002060003373ffffffffffffffffffffffffffffffffffffffff1673ffffffffffffffffffffffffffffffffffffffff16815260200190815260200160002060006101000a81548160ff02191690831515021790555081156106bf578060030160008154809291906106b590610e89565b91905055506106da565b8060040160008154809291906106d490610e89565b91905055505b823373ffffffffffffffffffffffffffffffffffffffff167fd356173ae8eeea8691aee4c1be712c314a975a3d43ebc48b08ca54d0dac91228846040516107219190610991565b60405180910390a3505050565b60006002600084815260200190815260200160002060008373ffffffffffffffffffffffffffffffffffffffff1673ffffffffffffffffffffffffffffffffffffffff16815260200190815260200160002060009054906101000a900460ff16905092915050565b60606107a260036107c1565b905090565b60006107b9836000018360001b6107e2565b905092915050565b606060006107d183600001610852565b905060608190508092505050919050565b60006107ee83836108ae565b61084757826000018290806001815401808255809150506001900390600052602060002001600090919091909150558260000180549050836001016000848152602001908152602001600020819055506001905061084c565b600090505b92915050565b6060816000018054806020026020016040519081016040528092919081815260200182805480156108a257602002820191906000526020600020905b81548152602001906001019080831161088e575b50505050509050919050565b600080836001016000848152602001908152602001600020541415905092915050565b6040518060c0016040528060008152602001606081526020016000815260200160008152602001600081526020016000151581525090565b600080fd5b600080fd5b6000819050919050565b61092681610913565b811461093157600080fd5b50565b6000813590506109438161091d565b92915050565b60006020828403121561095f5761095e610909565b5b600061096d84828501610934565b91505092915050565b60008115159050919050565b61098b81610976565b82525050565b60006020820190506109a66000830184610982565b92915050565b600080fd5b600080fd5b600080fd5b60008083601f8401126109d1576109d06109ac565b5b8235905067ffffffffffffffff8111156109ee576109ed6109b1565b5b602083019150836001820283011115610a0a57610a096109b6565b5b9250929050565b600080600060408486031215610a2a57610a29610909565b5b600084013567ffffffffffffffff811115610a4857610a4761090e565b5b610a54868287016109bb565b93509350506020610a6786828701610934565b9150509250925092565b610a7a81610913565b82525050565b6000604082019050610a956000830185610a71565b610aa26020830184610a71565b9392505050565b610ab281610913565b82525050565b600081519050919050565b600082825260208201905092915050565b60005b83811015610af2578082015181840152602081019050610ad7565b60008484015250505050565b6000601f19601f8301169050919050565b6000610b1a82610ab8565b610b248185610ac3565b9350610b34818560208601610ad4565b610b3d81610afe565b840191505092915050565b610b5181610976565b82525050565b600060c083016000830151610b6f6000860182610aa9565b5060208301518482036020860152610b878282610b0f565b9150506040830151610b9c6040860182610aa9565b506060830151610baf6060860182610aa9565b506080830151610bc26080860182610aa9565b5060a0830151610bd560a0860182610b48565b508091505092915050565b60006020820190508181036000830152610bfa8184610b57565b905092915050565b610c0b81610976565b8114610c1657600080fd5b50565b600081359050610c2881610c02565b92915050565b60008060408385031215610c4557610c44610909565b5b6000610c5385828601610934565b9250506020610c6485828601610c19565b9150509250929050565b600073ffffffffffffffffffffffffffffffffffffffff82169050919050565b6000610c9982610c6e565b9050919050565b610ca981610c8e565b8114610cb457600080fd5b50565b600081359050610cc681610ca0565b92915050565b60008060408385031215610ce357610ce2610909565b5b6000610cf185828601610934565b9250506020610d0285828601610cb7565b9150509250929050565b600081519050919050565b600082825260208201905092915050565b6000819050602082019050919050565b6000610d448383610aa9565b60208301905092915050565b6000602082019050919050565b6000610d6882610d0c565b610d728185610d17565b9350610d7d83610d28565b8060005b83811015610dae578151610d958882610d38565b9750610da083610d50565b925050600181019050610d81565b5085935050505092915050565b60006020820190508181036000830152610dd58184610d5d565b905092915050565b600082825260208201905092915050565b7f496e76616c69642065787069726174696f6e2074696d65000000000000000000600082015250565b6000610e24601783610ddd565b9150610e2f82610dee565b602082019050919050565b60006020820190508181036000830152610e5381610e17565b9050919050565b7f4e487b7100000000000000000000000000000000000000000000000000000000600052601160045260246000fd5b6000610e9482610913565b91507fffffffffffffffffffffffffffffffffffffffffffffffffffffffffffffffff8203610ec657610ec5610e5a565b5b600182019050919050565b6000610edc82610913565b9150610ee783610913565b9250828201905080821115610eff57610efe610e5a565b5b92915050565b7f4e487b7100000000000000000000000000000000000000000000000000000000600052604160045260246000fd5b7f4e487b7100000000000000000000000000000000000000000000000000000000600052602260045260246000fd5b60006002820490506001821680610f7b57607f821691505b602082108103610f8e57610f8d610f34565b5b50919050565b60008190508160005260206000209050919050565b60006020601f8301049050919050565b600082821b905092915050565b600060088302610ff67fffffffffffffffffffffffffffffffffffffffffffffffffffffffffffffffff82610fb9565b6110008683610fb9565b95508019841693508086168417925050509392505050565b6000819050919050565b600061103d61103861103384610913565b611018565b610913565b9050919050565b6000819050919050565b61105783611022565b61106b61106382611044565b848454610fc6565b825550505050565b600090565b611080611073565b61108b81848461104e565b505050565b5b818110156110af576110a4600082611078565b600181019050611091565b5050565b601f8211156110f4576110c581610f94565b6110ce84610fa9565b810160208510156110dd578190505b6110f16110e985610fa9565b830182611090565b50505b505050565b600082821c905092915050565b6000611117600019846008026110f9565b1980831691505092915050565b60006111308383611106565b9150826002028217905092915050565b61114982610ab8565b67ffffffffffffffff81111561116257611161610f05565b5b61116c8254610f63565b6111778282856110b3565b600060209050601f8311600181146111aa5760008415611198578287015190505b6111a28582611124565b86555061120a565b601f1984166111b886610f94565b60005b828110156111e0578489015182556001820191506020850194506020810190506111bb565b868310156111fd57848901516111f9601f891682611106565b8355505b6001600288020188555050505b505050505050565b82818337600083830152505050565b600061122d8385610ddd565b935061123a838584611212565b61124383610afe565b840190509392505050565b60006040820190508181036000830152611269818587611221565b90506112786020830184610a71565b949350505050565b7f50726f706f73616c206973206e6f742061637469766500000000000000000000600082015250565b60006112b6601683610ddd565b91506112c182611280565b602082019050919050565b600060208201905081810360008301526112e5816112a9565b9050919050565b7f566f74696e6720706572696f6420686173206578706972656400000000000000600082015250565b6000611322601983610ddd565b915061132d826112ec565b602082019050919050565b6000602082019050818103600083015261135181611315565b9050919050565b7f416c726561647920766f74656400000000000000000000000000000000000000600082015250565b600061138e600d83610ddd565b915061139982611358565b602082019050919050565b600060208201905081810360008301526113bd81611381565b905091905056fea2646970667358221220def66348292099d5e0ecaeb13bf26ff56d9b75f11d79bbb857f8757c0ee86d4364736f6c63430008140033",
  "linkReferences": {},
  "deployedLinkReferences": {}
}